{
  "contractName": "Provenance",
  "abi": [
    {
      "constant": true,
      "inputs": [
        {
          "name": "",
          "type": "uint256"
        },
        {
          "name": "",
          "type": "uint256"
        }
      ],
      "name": "proves",
      "outputs": [
        {
          "name": "idP",
          "type": "uint256"
        },
        {
          "name": "stageNumber",
          "type": "uint256"
        },
        {
          "name": "operator",
          "type": "address"
        },
        {
          "name": "content",
          "type": "string"
        }
      ],
      "payable": false,
      "stateMutability": "view",
      "type": "function"
    },
    {
      "constant": true,
      "inputs": [
        {
          "name": "",
          "type": "uint256"
        }
      ],
      "name": "index",
      "outputs": [
        {
          "name": "",
          "type": "uint256"
        }
      ],
      "payable": false,
      "stateMutability": "view",
      "type": "function"
    },
    {
      "constant": false,
      "inputs": [
        {
          "name": "_idP",
          "type": "uint256"
        },
        {
          "name": "_content",
          "type": "string"
        }
      ],
      "name": "Create",
      "outputs": [],
      "payable": false,
      "stateMutability": "nonpayable",
      "type": "function"
    },
    {
      "constant": true,
      "inputs": [
        {
          "name": "_idP",
          "type": "uint256"
        }
      ],
      "name": "getContent",
      "outputs": [
        {
          "name": "_content",
          "type": "string"
        }
      ],
      "payable": false,
      "stateMutability": "view",
      "type": "function"
    }
  ],
  "bytecode": "0x608060405234801561001057600080fd5b506106db806100206000396000f300608060405260043610610062576000357c0100000000000000000000000000000000000000000000000000000000900463ffffffff1680630b7ad54c14610067578063157557381461010d578063335932fc146101fe578063bba373181461023f575b600080fd5b34801561007357600080fd5b50610092600480360381019080803590602001909291905050506102b2565b6040518080602001828103825283818151815260200191508051906020019080838360005b838110156100d25780820151818401526020810190506100b7565b50505050905090810190601f1680156100ff5780820380516001836020036101000a031916815260200191505b509250505060405180910390f35b34801561011957600080fd5b50610142600480360381019080803590602001909291908035906020019092919050505061038f565b604051808581526020018481526020018373ffffffffffffffffffffffffffffffffffffffff1673ffffffffffffffffffffffffffffffffffffffff16815260200180602001828103825283818151815260200191508051906020019080838360005b838110156101c05780820151818401526020810190506101a5565b50505050905090810190601f1680156101ed5780820380516001836020036101000a031916815260200191505b509550505050505060405180910390f35b34801561020a57600080fd5b5061022960048036038101908080359060200190929190505050610484565b6040518082815260200191505060405180910390f35b34801561024b57600080fd5b506102b060048036038101908080359060200190929190803590602001908201803590602001908080601f016020809104026020016040519081016040528093929190818152602001838380828437820191505050505050919291929050505061049c565b005b606060008083815260200190815260200160002060006001806000868152602001908152602001600020540381526020019081526020016000206003018054600181600116156101000203166002900480601f0160208091040260200160405190810160405280929190818152602001828054600181600116156101000203166002900480156103835780601f1061035857610100808354040283529160200191610383565b820191906000526020600020905b81548152906001019060200180831161036657829003601f168201915b50505050509050919050565b6000602052816000526040600020602052806000526040600020600091509150508060000154908060010154908060020160009054906101000a900473ffffffffffffffffffffffffffffffffffffffff1690806003018054600181600116156101000203166002900480601f01602080910402602001604051908101604052809291908181526020018280546001816001161561010002031660029004801561047a5780601f1061044f5761010080835404028352916020019161047a565b820191906000526020600020905b81548152906001019060200180831161045d57829003601f168201915b5050505050905084565b60016020528060005260406000206000915090505481565b6104a46105cb565b608060405190810160405280848152602001600160008681526020019081526020016000205481526020013373ffffffffffffffffffffffffffffffffffffffff16815260200183815250905080600080858152602001908152602001600020600060016000878152602001908152602001600020548152602001908152602001600020600082015181600001556020820151816001015560408201518160020160006101000a81548173ffffffffffffffffffffffffffffffffffffffff021916908373ffffffffffffffffffffffffffffffffffffffff160217905550606082015181600301908051906020019061059f92919061060a565b509050506001600084815260200190815260200160002060008154809291906001019190505550505050565b6080604051908101604052806000815260200160008152602001600073ffffffffffffffffffffffffffffffffffffffff168152602001606081525090565b828054600181600116156101000203166002900490600052602060002090601f016020900481019282601f1061064b57805160ff1916838001178555610679565b82800160010185558215610679579182015b8281111561067857825182559160200191906001019061065d565b5b509050610686919061068a565b5090565b6106ac91905b808211156106a8576000816000905550600101610690565b5090565b905600a165627a7a72305820a5e96e4c4fd8815c94c3f4443228796e88abbe070c97004f74c9a95bc8964b400029",
  "source": "pragma solidity ^0.4.24;\r\n\r\ncontract Provenance {\r\n    // 溯源记录结构\r\n    struct Prov {\r\n        uint256 idP; // 所有者\r\n        uint256 stageNumber; // 溯源记录阶段编号\r\n        address operator; // 操作者\r\n        string content; // 溯源记录内容\r\n    }\r\n\r\n    mapping(uint256 => mapping(uint256 => Prov)) public proves; // 所有溯源记录（ID-阶段编号-文件结构）\r\n    mapping(uint256 => uint256) public index; // idP的记录个数\r\n\r\n    function Create(\r\n        uint256 _idP,\r\n        string memory _content\r\n    ) public {\r\n        Prov memory _prov = Prov({\r\n        idP : _idP,\r\n        stageNumber : index[_idP],\r\n        operator : msg.sender,\r\n        content : _content\r\n        });\r\n        proves[_idP][index[_idP]] = _prov;\r\n        index[_idP]++;\r\n    }\r\n\r\n    function getContent(\r\n        uint256 _idP\r\n    ) public view\r\n    returns (string _content) {\r\n        _content = proves[_idP][index[_idP] - 1].content;\r\n    }\r\n}",
  "sourcePath": "D:\\java\\IdeaProjects\\BESURE\\src\\main\\web\\contracts\\Provenance.sol",
  "compiler": {
    "name": "solc",
    "version": "0.4.24+commit.e67f0147.Emscripten.clang"
  },
  "schemaVersion": "3.2.1",
  "updatedAt": "2020-12-14T09:42:19.172Z",
  "networkType": "ethereum",
  "devdoc": {
    "methods": {}
  },
  "userdoc": {
    "methods": {}
  }
}